:020000040800F2
:100000003008002029020008DB200008951E0008A7
:10001000D92000081F040008E526000800000000A1
:10002000000000000000000000000000E1200008C7
:100030005104000800000000DD200008E320000853
:10004000430200084302000843020008430200087C
:1000500043020008DF2000084302000843020008B2
:10006000430200084302000843020008430200085C
:10007000430200084302000843020008430200084C
:10008000430200084302000843020008430200083C
:10009000210400082D040008430200084302000860
:1000A000430200088D2100084302000843020008B3
:1000B000430200084302000843020008430200080C
:1000C00043020008430200084302000843020008FC
:1000D00043020008CD26000843020008430200083E
:1000E00043020008430200084302000843020008DC
:1000F00043020008430200084302000843020008CC
:1001000043020008430200084302000843020008BB
:1001100043020008430200084302000843020008AB
:10012000430200084302000843020008430200089B
:10013000430200084302000843020008430200088B
:10014000390400084504000843020008430200087F
:10015000430200084302000843020008D9260008B1
:10016000430200084302000843020008430200085B
:100170004302000843020008430200080000000098
:10018000430200084302000800F002F800F03CF8C7
:100190000AA090E8000C82448344AAF10107DA45E2
:1001A00001D100F031F8AFF2090EBAE80F0013F0F8
:1001B000010F18BFFB1A43F001031847B4250000D4
:1001C000D4250000103A24BF78C878C1FAD8520765
:1001D00024BF30C830C144BF04680C6070470000C1
:1001E0000023002400250026103A28BF78C1FBD840
:1001F000520728BF30C148BF0B6070471FB502F0DF
:10020000A5FA1FBD10B510BD00F0CFF81146FFF7DD
:10021000F5FF02F079FA00F0EDF803B4FFF7F2FF12
:1002200003BC00F0F5F80000094880470948004782
:10023000FEE7FEE7FEE7FEE7FEE7FEE7FEE7FEE796
:10024000FEE7FEE704480549054A064B70470000F3
:100250007D210008890100083002002030080020BC
:10026000300400203004002053EA020C00F06980C2
:100270002DE9F04B4FF00006002B1FBFB3FA83F5BA
:1002800003FA05F424FA05F65E4012BF1643B2FAEB
:1002900082F502FA05F4C5F120051EBF22FA05FC1D
:1002A00044EA0C04203556EA044C4FEA144418BFC3
:1002B000641C4FF000084FF00009904271EB030CF2
:1002C00039D3002919BFB1FA81F701FA07F6B0FA5C
:1002D00080F700FA07F6C7F120071EBF20FA07FCD7
:1002E00046EA0C062037B6FBF4FCA7EB0507103FE7
:1002F00007F01F0BCBF120060CFA0BFB2CFA06F6CD
:1003000044BFB3460026202FA4BF5E464FF0000B2B
:100310005BEA060C08BF4FF0010B19EB0B09ABFBB6
:10032000027C48EB0608C01B06FB02CC0BFB03CC8F
:1003300071EB0C01C1E70B46024641464846BDE859
:10034000F08B13B54FF000004FF00001AFF30080C9
:10035000BDE81C4070474FF0000200B513469446BC
:100360009646203922BFA0E80C50A0E80C50B1F10D
:100370002001BFF4F7AF090728BFA0E80C5048BF21
:100380000CC05DF804EB890028BF40F8042B08BFBF
:10039000704748BF20F8022B11F0804F18BF00F8BB
:1003A000012B7047704770477047754600F02CF876
:1003B000AE4605006946534620F00700854618B052
:1003C00020B5FFF73FFFBDE820404FF000064FF09B
:1003D00000074FF000084FF0000B21F00701AC467A
:1003E000ACE8C009ACE8C009ACE8C009ACE8C00999
:1003F0008D46704710B50446AFF300802046BDE837
:100400001040FFF70ABF000000487047D0010020ED
:1004100001491820ABBEFEE7260002007047FEE748
:10042000014800F08DB8000038000020014800F0BD
:1004300087B8000038000020014800F081B80000B3
:1004400060000020014800F07BB800006000002040
:10045000704772B6FEE7704730B590F82040012C27
:1004600005D0022C03D0416A41F480215DE004688C
:10047000002955D02469A40754D04FF4D8740568D6
:1004800004EB01142D5915F00405956005682D59EC
:100490004ED0ED08556005682C5904F00204D46074
:1004A0004FF4DA74056804EB01142D5905F00F05BB
:1004B000156105682D59C5F30725956105682C5907
:1004C000240C54614FF4DC72046802EB0112A4584E
:1004D0001C700468A458240A5C700468A458240C96
:1004E0009C700468A258120EDA704FF4DE72046831
:1004F00002EB0112A4581C710468A458240A5C7110
:100500000468A458240C9C710468A258120EDA7175
:10051000006881B1016941F020010161002030BD16
:10052000E468A8E7416A41F400114162012030BD4E
:100530006D0D1560AFE7C16841F02001C160EDE7C6
:100540002DE9F05F0546006800244669D0F8049064
:100550008768D0F80CB0D0F810A0D0F81880F10758
:1005600048D0F90714D001218160B80703D5284687
:1005700000F034FA0CE0780702D54FF4006407E08D
:10058000380702D54FF4805402E0284600F025FADF
:10059000F80516D529684FF480708860B80503D532
:1005A000284600F01DFA0CE0780502D544F400540A
:1005B00007E0380502D544F4804402E0284600F004
:1005C0000EFAF80316D529684FF480308860B80316
:1005D00003D5284600F006FA0CE0780302D544F46F
:1005E000004407E0380302D544F4803402E0284692
:1005F00000F0F7F9300707D55FEACB6004D529682A
:10060000102044F40074C86070074FF0080707D545
:100610005FEA0B7004D52868C760284600F0AAF985
:10062000B00706D52868C068800702D0284600F0C9
:10063000A3F9700607D55FEACA6004D529681020BF
:1006400044F480640861B00607D55FEA0A7004D5F7
:1006500028680761284600F0BDF9F00606D528682D
:100660000069800702D0284600F0B5F9B00308D52C
:100670005FEAC96005D5296810204860284600F067
:10068000ABF9F00307D55FEA097004D52868476025
:10069000284600F0A8F9300446D55FEA497040D5F5
:1006A000F00504D55FEAC87001D044F00104B0053C
:1006B00004D55FEA887001D544F00204700504D5C2
:1006C0005FEA487001D544F00404300529D518F0DC
:1006D000700F26D008F07000402815D006DC1028D6
:1006E00009D020280AD0302816D10AE050280ED090
:1006F000602811D10EE044F008040DE044F010042D
:100700000AE044F0200407E044F0400404E044F030
:10071000800401E044F480742868816921F070014C
:100720008161296804204860002C05D0686A204354
:1007300068622846FFF78FFEBDE8F09F70B50400A1
:1007400003D094F8200010B104E0012070BD2046D1
:1007500000F082F82068016841F00101016000F0BA
:10076000A9FA0546052604E000F0A4FA401B0A2871
:1007700011D820684068C007F6D02068016821F0D1
:100780000201016000F096FA05460BE000F092FAD3
:10079000401B0A2806D9606A40F40030606284F881
:1007A0002060D2E7206840688007EFD4207E0128CF
:1007B000206801683DD021F080010160607E012841
:1007C0002068016838D021F040010160A07E012836
:1007D0002068016833D021F020010160E07E01280B
:1007E000206801682ED041F010010160207F0128AF
:1007F0002068016829D021F008010160607F01288C
:100800002068016824D021F004010160D4E90201CC
:100810000843D4E90412114308436168491E0843A0
:100820002168C86100206062012084F82000002057
:1008300070BD41F08001C0E741F04001C5E741F0E3
:100840002001CAE721F01001CFE741F00801D4E709
:1008500041F00401D9E70000F0B587B00446142147
:100860006846FFF778FD3E4B3E48DFF8F0E0196838
:10087000D4F800C03B4A0325022609271030002483
:10088000491CF4452AD11960012907D1016841F0BA
:1008900000710160006800F000700590106840F081
:1008A000080010601068CDE9005600F00800CDE99E
:1008B000047069462C48CDE9024500F003F9002296
:1008C0001146142000F06CFA142000F05BFA0022AC
:1008D0001146152000F064FA15203AE0DFF88CE0AC
:1008E000F44538D1D0F800C04CF0806CC0F800C09E
:1008F000D0F800C001290CF0806CCDF814C019604C
:1009000007D1016841F000710160006800F00070DB
:100910000590106840F002001060106802AB00F013
:10092000020005906020CDE9000683E8B00069462A
:100930000F4800F0C7F800221146402000F030FABE
:10094000402000F01FFA00221146412000F028FA52
:10095000412000F017FA07B0F0BD0000006400402D
:100960001000002030380240000C024000680040B7
:10097000000402407047000000B58BB001AB03AA31
:100980000021FFF769FD0398A0F2012006281AD87C
:100990000E49C0B200EB800208700D4901EB420025
:1009A00031F812300381BDF804305BBA21F81230FF
:1009B000BDF8061049BA4180BDF8081049BA8180D7
:1009C0009DF80A1081710BB000BD000024000020CA
:1009D0005801002070477047704770477047704754
:1009E00070477047704770472DE9F0410446876DA6
:1009F00000F060F9064694F835000025022806D07C
:100A00008020606584F834500120BDE8F0812068C2
:100A1000016821F0160101602068416921F0800120
:100A20004161206C08B9A06C20B12068016821F0F8
:100A3000080101602068016821F0010101600CE0FB
:100A400000F038F9801B052807D9202060650320B5
:100A500084F8350084F83450D7E720680068C00770
:100A6000EED194F85C103F208840B860012084F8F3
:100A7000350084F834500020C7E790F8351002297B
:100A800003D08021416501207047052180F8351091
:100A90000068016821F0010101600020704700003A
:100AA00070B5044600F006F90546601C02D0044803
:100AB0000078044400F0FEF8401BA042FAD370BD59
:100AC000140000202DE9F84FDFF8BCA10022012519
:100AD0000AF1040B03264FF00F090BF1040E00BFBF
:100AE0000B6805FA02F42340A34270D10F7907F096
:100AF0000307012F01D0022F16D187684FEA420861
:100B000006FA08FC27EA0C07D1F80CC00CFA08FC1E
:100B10004CEA070CC0F808C04768A7430C79C4F337
:100B2000001494403C4344600C79E443A4070AD089
:100B3000C4684FEA420C06FA0CF7BC438F6807FA08
:100B40000CF72743C7600C7904F00304022C12D180
:100B5000D40800EB840CDCF820405707FF0E09FA9C
:100B600007F824EA0804D1F8108008FA07F848EAE0
:100B70000408CCF8208004684FEA420C06FA0CF70F
:100B8000BC430F7907F0030707FA0CF72743076008
:100B90004C6814F4403F70D03C4C276847F48047C1
:100BA0002760246822F0030704F480440094384C42
:100BB00007EB040CDCF8084897074FEA177809FAA6
:100BC00008F7BC43334FB84202D1002724E054E079
:100BD000314FB84201D101271EE0304FB84201D158
:100BE000022719E02E4FB84201D1032714E02D4F00
:100BF000B84201D104270FE02B4FB84201D105279D
:100C00000AE02A4FB84201D1062705E0284FB84232
:100C100001D1072700E0082707FA08F72743CCF897
:100C20000878DAF800405746D1F804C09C435FEAE0
:100C3000CC3C00D51C433C60DBF800405F46D1F85B
:100C400004C09C435FEA8C3C00D51C433C60DEF84A
:100C500000407746D1F804C09C435FEACC2C00D515
:100C60001C433C60084F0C373C68D1F804C09C43DF
:100C70005FEA8C2C00D51C433C60521C102AFFF408
:100C80002FAFBDE8F88F0000003C0140443802401F
:100C90000030014000000240000402400008024011
:100CA000000C0240001002400014024000180240F4
:100CB000001C0240014880687047000014000020BA
:100CC0000248816802781144816070471400002056
:100CD0000B4810B5016841F400710160016841F4EE
:100CE00080610160016841F480710160032000F0BF
:100CF00077F80F2000F006F800F024F8002010BD6F
:100D0000003C024070B50D4D04464FF47A712878CE
:100D1000B1FBF0F00A490968B1FBF0F000F014FBF8
:100D200048B9102C07D200222146501E00F038F896
:100D300000206C6070BD012070BD00001400002018
:100D4000200000200E4808B5016841F48041016090
:100D5000006800F4804000900948001F016841F0DD
:100D6000805101600068002200F080500090114620
:100D7000052000F015F8BDE80840052000F002B895
:100D800044380240002809DB00F01F020121914095
:100D90004009800000F1E020C0F800117047000019
:100DA000F0B40E4B1B680C46C3F30223C3F10705D6
:100DB000042D00D90425191D072901D2002300E0C4
:100DC000DB1E012606FA05F1491E214099409E408E
:100DD000761E16403143F0BC01F085BC0CED00E0FE
:100DE000064900F0070208684FF6FF03184040EA82
:100DF0000220034A10430860704700000CED00E039
:100E00000000FA052DE9F0470E46050065D0DFF831
:100E10001481D8F80000F7B200F00700B04207D202
:100E200088F80070D8F8000000F00700B04254D1F4
:100E300028683D4C810712D5400703D5206840F44F
:100E4000E05020602878000703D5206840F4604017
:100E500020602068A96820F0F0000843206028780E
:100E6000C0072DD0304968680839012812D00228FF
:100E700013D0032811D00968890700292DDA2168C9
:100E800021F0030101432160FFF714FF814641F285
:100E9000883A0EE009688903EFE709688901ECE701
:100EA000FFF708FFA0EB0901514502D90320BDE877
:100EB000F0872068696800F00C00B0EB810FEFD17B
:100EC000D8F80010404601F00701B14207D9077079
:100ED000006800F00700B04201D00120E7E7287861
:100EE000400705D52068E96820F4E05008432060F9
:100EF0002878000706D52068296920F4604040EA78
:100F0000C100206000F038F82168084AC1F30311DD
:100F1000515CC8400649086006480068FFF7F2FEC9
:100F20000020C4E7003C0240083802405627000871
:100F300020000020180000200448054900680968C6
:100F4000044AC1F38221515CC84070472000002050
:100F50000838024066270008044805490068096807
:100F6000044AC1F34231515CC84070472000002060
:100F70000838024066270008154810B5006810F0D0
:100F80000C02144813D01449042A0FD0082A0ED199
:100F90000F4C241F2268236802F03F025B0207D532
:100FA0002068C0F38810A0FB010106E0084610BDD0
:100FB0002168C1F38811A1FB00010023FFF754F958
:100FC0002168C1F30141491C4900B0FBF1F010BD9B
:100FD000083802400024F400001BB7002DE9F84F48
:100FE00004006ED02078DFF84C93C007A9F1040507
:100FF0004AD009F104000168C1F38101012908D038
:101000000068C0F3810002280AD1D9F8000040022C
:1010100006D52868800337D560680028E1D033E022
:101020006068B0F5803F10D0B0F5A02F286810D0D0
:1010300020F480302860286820F4802028606068D0
:10104000A8B1FFF737FE06460DE0286840F480306F
:10105000F4E740F480202860F7E700BFFFF72AFE9E
:10106000801B642873D828688003F7D50CE0FFF74D
:1010700021FE064605E000BFFFF71CFE801B64282A
:10108000F0D828688003F7D42078DFF8AC82800796
:101090004FF0000A3ED5A748001D016811F00C0F63
:1010A00008D00068C0F3810002280BD1D9F80000F5
:1010B000400207D42868800716D5E068012800D1CF
:1010C00012E033E1E068B8B10120C8F80000FFF792
:1010D000F1FD064605E000BFFFF7ECFD801B02288E
:1010E000C0D828688007F7D52868216920F0F80063
:1010F00040EAC10028600DE0C8F800A0FFF7DAFD63
:10110000064604E0FFF7D6FD801B02281FD828689A
:101110008007F7D42078000722D5864F8748616979
:10112000703771B101210160FFF7C4FD064604E08C
:10113000FFF7C0FD801B022809D838688007F7D563
:101140000EE0C0F800A0FFF7B5FD064605E082E01E
:10115000FFF7B0FD801B02287DD838688007F7D4E0
:101160002078400768D5DFF8CCB100270BF13C0BA5
:10117000DBF80000C0000BD4DBF8001041F0805118
:10118000CBF80010DBF80000012700F08050009041
:101190006B4E3068C00510D4306840F48070306009
:1011A000FFF788FD009005E0FFF784FD0099401AE5
:1011B000022850D83068C005F6D55E4EA0686C365F
:1011C00001280FD00528306810D020F001003060D1
:1011D000306820F004003060A068B8B1FFF76AFD05
:1011E00000900FE0306840F00100F4E740F00400A8
:1011F0003060F7E7FFF75EFD0099411A41F2883051
:10120000814266D830688007F4D50EE0FFF752FDC2
:10121000009007E0FFF74EFD0099411A41F2883037
:10122000814256D830688007F4D42FB1DBF8001023
:1012300021F08051CBF80010A069C8B33D49091DC9
:101240000968C1F3810102294AD00228504607D01B
:10125000C8F8600000E03CE0FFF72CFD04463BE0EE
:101260004746C8F86000FFF725FD064605E000BFC9
:10127000FFF720FD801B02282BD828688001F7D4B7
:10128000D4E907010843A16A2E4A490802EB01414B
:10129000626A41EA8211084394F82C1040EA016125
:1012A000C9F8001001203866FFF704FD044606E087
:1012B0003EE000BFFFF7FEFC001B022809D82868AB
:1012C0008001F7D534E000BFFFF7F4FC001B0228D3
:1012D00002D90320BDE8F88F28688001F4D427E004
:1012E0000128F7D0D9F80000E26900F480019142AA
:1012F0001CD1226A00F03F01914217D147F6C0711C
:10130000626A0140B1EB821F10D1A26A4FF0FF3335
:1013100000F4403103EB5202B1EB024F06D194F8D6
:101320002C1000F07060B0EB016F01D00120D1E70C
:101330000020CFE70438024000004742800E4742B9
:10134000007000400000FFFF10B5401EB0F1807F2C
:1013500001D3012010BD4FF0E02460610F21601720
:1013600001F0C1F90020A06107202061002010BD1C
:101370007047704710B590F83C20012A22D0012216
:1013800080F83C20CA688C6822F4407222434C6882
:1013900022F4806222430C6822F4006222430C692A
:1013A00022F4805222434C6922F400522243C9693C
:1013B000002322F480420A4301684A6480F83C30EA
:1013C000002010BD022010BD70B590F83C20012A0D
:1013D00032D0012480F83C40022280F83D2003688E
:1013E0005A689D6822F070060A6832435A60134BAF
:1013F00002689A4214D0B2F1804F11D0104B9A4239
:101400000ED0104B9A420BD00F4B9A4208D00F4B84
:101410009A4205D00E4B9A4202D00E4B9A4204D10A
:10142000496825F080031943916080F83D40002110
:1014300080F83C10084670BD022070BD00000140DD
:101440000004004000080040000C0040000401407F
:10145000004001400018004010B5040003D094F88B
:101460003D0010B107E0012010BD002084F83C00D1
:10147000204600F01FF8022084F83D00211D20685E
:1014800000F08AFE012084F8460084F83E0084F8CB
:101490003F0084F8400084F8410084F8420084F85A
:1014A000430084F8440084F8450084F83D0000209F
:1014B00010BD000008B500680B49884212D10B48E6
:1014C000016841F0010101600068002200F00100A4
:1014D000009011461920FFF763FCBDE80840192071
:1014E000FFF750BC08BD0000000001404438024036
:1014F00090F83D10012901D001207047022180F8A9
:101500003D1000681149884214D0B0F1804F11D0CD
:101510000F4988420ED00F4988420BD00E498842AD
:1015200008D00E49884205D00D49884202D00D49A5
:10153000884204D1816801F00701062903D00168BF
:1015400041F00101016000207047000000000140EF
:101550000004004000080040000C0040000401406E
:10156000004001400018004070B5044690F83C006F
:101570000025012817D0012684F83C60022084F859
:101580003D002068826822F0770222F47F42826068
:101590000868502838D00DDC20284FD005DC90B3E7
:1015A000102811D14AE0022070BD302846D04028D2
:1015B0000AD13BE060282FD070280DD0B0F5805FB5
:1015C00003D0B0F5005F12D0012584F83D60002003
:1015D00084F83C00284670BDCB68D1E90121206821
:1015E00000F04BFE2068816841F0770109E0CB688C
:1015F000D1E90121206800F040FE2068816841F4B3
:1016000080418160E1E719E0CA684968206800F01C
:1016100009FF5021206806E0CA684968206800F088
:1016200012FF6021206800F032FECEE7CA684968E8
:10163000206800F0F7FE40212068F4E722680146A8
:101640001046F0E7704770B50446006801694FF036
:101650000005C943890715D4C168C943890711D456
:10166000E91E0161012020772068806980072046FB
:1016700002D0FFF7E7FF04E000F0D6F8204600F0C4
:1016800068F9257720680169C943490717D4C168FB
:10169000C943490713D46FF0040101610220207788
:1016A0002068806910F4407F204602D0FFF7CAFF0F
:1016B00004E000F0B9F8204600F04BF925772068E7
:1016C0000169C943090716D4C168C943090712D47F
:1016D0006FF008010161042020772068C06980074D
:1016E000204602D0FFF7AEFF04E000F09DF8204650
:1016F00000F02FF9257720680169C943C90617D47E
:10170000C168C943C90613D46FF0100101610820F4
:1017100020772068C06910F4407F204602D0FFF790
:1017200091FF04E000F080F8204600F012F92577E0
:1017300020680169C943C90708D1C168C943C907FD
:1017400004D1891E0161204600F068F92068016912
:10175000C943090609D4C168C943090605D46FF015
:10176000800101612046FFF703FE20680169C9433B
:10177000490609D4C168C943490605D46FF0400140
:101780000161204600F04BF920680169C9438906D0
:101790000BD4C168C943890607D46FF020010161E9
:1017A0002046BDE87040FFF7E4BD70BD70B586B05F
:1017B000044614216846FEF7CEFD1749206888428A
:1017C00028D116480024016841F001010160016838
:1017D00001F001010591016841F01001016000680C
:1017E000022500F0100005904FF480700090CDE9C4
:1017F00001540126CDE9034669460948FFF762F91D
:10180000A8020090CDE90154CDE903466946054898
:10181000FFF758F906B070BD0000014030380240B3
:101820000000024000100240704770B5044690F876
:101830003C0000260D4601280FD0012084F83C0012
:101840006AB1042A1DD0082A2FD00C2A3FD00126C5
:10185000002084F83C00304670BD022070BD206836
:1018600000F01EFD2068816941F008018161206857
:10187000816921F004018161206881692A6911432D
:1018800011E0206800F03CFD2068816941F40061AE
:1018900081612068816921F48061816120688169AA
:1018A0002A6941EA02218161D2E7206800F05EFDE9
:1018B0002068C16941F00801C1612068C16921F057
:1018C0000401C1612068C1692A69114311E02068DF
:1018D00000F080FD2068C16941F40061C1612068A9
:1018E000C16921F48061C1612068C1692A6941EA46
:1018F0000221C161ACE710B5040003D094F83D00AB
:1019000010B107E0012010BD002084F83C00204603
:1019100000F01EF8022084F83D00211D206800F030
:101920003BFC012084F8460084F83E0084F83F0028
:1019300084F8400084F8410084F8420084F84300B1
:1019400084F8440084F8450084F83D00002010BD70
:101950007047704710B50446022249B104290ED0E1
:10196000082913D094F84100012816D0012010BD99
:1019700094F83E000128F9D184F83E200FE094F855
:101980003F000128F2D184F83F2008E094F840009D
:101990000128EBD184F8402001E084F841200122A5
:1019A000206800F05DFC16492068164A884201D084
:1019B000904203D1436C43F400434364206888425F
:1019C00013D0B0F1804F10D00F4988420DD00F498D
:1019D00088420AD00E49884207D0904205D00D496E
:1019E000884202D00C49884204D1816801F0070185
:1019F000062903D0016841F001010160002010BDFB
:101A000000000140000401400004004000080040C4
:101A1000000C004000400140001800407047704733
:101A200070477047F8B5016804460868CA684B6992
:101A300010F00F0F4FF0000559D003F0010602F42B
:101A40009077374365D0C10705D0D10503D5216C08
:101A500041F001012164410705D5D90703D0216C6C
:101A600041F002012164810705D5D90703D0216C1B
:101A700041F004012164010707D502F02001314340
:101A800003D0216C41F008012164216C00293AD077
:101A9000800604D5900602D5204600F015FD20688A
:101AA0004069216CC0F38010090700D460B3204660
:101AB00000F0E3FC20684069400621D5206814301E
:101AC00050E8001F21F0400140E80012002AF5D143
:101AD000A06BA8B16C490165A06BFEF7CEFF002892
:101AE00011D0A06B016D01B0BDE8F040084783063E
:101AF0000FD593060DD52046BDE8F84000F0E4BCB4
:101B00002046FFF78EFFF8BD2046FFF78AFF2564C9
:101B1000F8BD266B2023012E79D1C60677D5D606CF
:101B200075D50868486800904869400640D5A16BA3
:101B3000086840680004000CEAD0A28D8242E7D910
:101B4000E085C869B0F5807F2DD020680C3050E862
:101B5000001F21F4807140E80012002AF5D12068AE
:101B6000143050E8001F21F0010140E80012002A63
:101B7000F5D12068143050E8001F21F0400140E802
:101B80000012002AF5D184F83E30256320680C301D
:101B900050E8001F21F0100140E80012002AF5D1A2
:101BA000A06BFEF721FFA08DE18D401A81B229E0E4
:101BB000A08DE18D401A81B2E08D0028A8D00029C7
:101BC000A6D020680C3050E8002F22F4907240E834
:101BD0000026002EF5D12068143050E8002F22F0A6
:101BE000010240E80026002EF5D184F83E3025633E
:101BF00020680C3050E8002F22F0100240E800234B
:101C0000002BF5D12046FFF70BFFF8BDFFE70506D7
:101C10002BD5150629D594F83D002128F5D1A068CB
:101C2000B0F5805F01D12069B0B1206A411C21620A
:101C3000216800784860E08C401E0004000CE084BD
:101C4000E3D12068C16821F08001C1602068C168CB
:101C500041F04001C160D8E7206A0088C0F3080065
:101C60004860206A801C2062E5E74006CDD550061A
:101C7000CBD5CA68204622F04002CA6084F83D30C5
:101C800000F007F9C1E700006B24000870B50400FC
:101C900004D094F83D00002510B106E0012070BD8D
:101CA00084F83C50204600F023F8242084F83D00BE
:101CB0002068C16821F40051C160204600F064FC36
:101CC0002068016921F4904101612068416921F097
:101CD0002A0141612068C16841F40051C160256456
:101CE000202084F83D0084F83E00002070BD0000F4
:101CF000F0B587B0044614216846FEF72CFB344843
:101D0000324B2268002432491438022503269A42B5
:101D100033D10A6842F010020A60096801F010012C
:101D20000591016841F002010160016801F00201C2
:101D30000591016841F001010160006802AA00F00C
:101D4000010005908020CDE90005072782E8D0003A
:101D500069462048FEF7B6FE2802CDE9000502AA32
:101D6000694682E8D0001C48FEF7ACFE002211460E
:101D70002520FFF715F8252024E0184B9A4223D19F
:101D80000A6842F020020A60096801F0200105910A
:101D9000016841F0400101600068029400F04000D9
:101DA00005904FF48440CDE900050820CDE903609B
:101DB00069460B48FEF786FE002211464720FEF7D3
:101DC000EFFF4720FEF7DEFF07B0F0BD0010014037
:101DD0004438024000040240000002400014014068
:101DE0000018024090F83E30202B0ED159B152B16C
:101DF00090F83C30012B08D0012380F83C300023C0
:101E0000036300F047BC01207047022070470000C8
:101E100010B501220C490D4800F01CF80A48027860
:101E2000472A09D00021482A05D04A2A03D04B2A44
:101E300002D14FF47A714180BDE81040012202497D
:101E40000348FFF7CFBF000000000020140100206E
:101E5000D000002090F83D30202B18D1A9B1A2B1BC
:101E600090F83C30012B12D001628284C2840021A0
:101E70000164212280F83D2080F83C100068C16890
:101E800041F08001C16000207047012070470220AE
:101E900070477047FEE700000F4810B50D4901601C
:101EA0000321416000214FF410228160C0E9031238
:101EB0004FF400124261017641768176C176017756
:101EC0004177FEF73BFC002803D0BDE81040FEF749
:101ED000C0BA10BD00640040380000200F4810B5A3
:101EE0000D4901600321416000214FF410228160FF
:101EF000C0E903124FF40012426101764176817607
:101F0000C17601774177FEF719FC002803D0BDE8C0
:101F10001040FEF79EBA10BD00680040600000202F
:101F2000194808B5016841F002010160016801F03B
:101F300002010091016841F040010160016801F077
:101F400040010091016841F001010160016801F068
:101F500001010091016841F008010160016801F090
:101F600008010091016841F080010160016801F001
:101F700080010091016841F010010160006800F0EB
:101F80001000009008BD00003038024010B596B037
:101F900000240F9410941194129413941C216846F9
:101FA0001494FEF7D8F9202107A8FEF7D4F92D489C
:101FB0002B490160A721C0E9011444F61F61C0E963
:101FC000031444618461FFF747FA08B1FEF741FA50
:101FD0004FF480500F900FA92248FFF7C5FA08B1BF
:101FE000FEF737FA1F48FFF786FC08B1FEF731FA13
:101FF000139413A91B481494FFF7E6F908B1FEF7F0
:1020000028FA6020009043F69820CDE9010403945B
:10201000049405940022694612480694FFF705FCD3
:1020200008B1FEF716FA042269460E48FFF7FDFBD9
:1020300008B1FEF70EFA0794089409944FF4005083
:102040000A94CDE90B4007A906480E94FFF792F9D0
:1020500008B1FEF7FEF90348FFF7A8FB16B010BD64
:1020600000000140880000200C4810B50A490160BA
:102070004FF416514160002181600C22C160C0E91B
:1020800004128161C161FFF701FE002803D0BDE8A1
:102090001040FEF7DEB910BD00100140D000002056
:1020A0000C4810B50A4901604FF4165141600021F7
:1020B00081600C22C160C0E904128161C161FFF737
:1020C000E5FD002803D0BDE81040FEF7C2B910BD01
:1020D0000014014014010020FEE7FEE7704770473E
:1020E0007047FEF7EDBD000030B593B03021684673
:1020F000FEF731F914210CA8FEF72DF91D48002533
:10210000016841F080510160006800F0805011903A
:102110001948016841F4804101600068022400F41C
:102120008040119001200090000401908001CDE9D1
:10213000064006200890A820CDE9090404200B9051
:102140006846FEF74BFF08B172B6FEE70CA90F20F8
:1021500081E831004FF4A0500F904FF48050109060
:1021600005210CA8FEF74EFE002801D072B6FEE74E
:1021700013B030BD40380240007000400248016892
:1021800041F470010160704788ED00E00148FFF7FD
:102190005ABA000088000020F0B50268254C264D90
:1021A000264E274F274B4FF0804CA04209D0604568
:1021B00007D0A84205D0B04203D0B84201D098421F
:1021C00004D122F0700E4A6842EA0E02A0421BD0EF
:1021D000604519D0A84217D0B04215D0B84213D0EC
:1021E000984211D0184DA8420ED0184DA8420BD0DD
:1021F000174DA84208D0174DA84205D0164DA84249
:1022000002D0164DA84203D122F44075CA682A4371
:102210004D6922F080022A4302608A68C2620A681D
:102220008262A04201D0984201D109690163012173
:102230004161F0BD00000140000400400008004082
:10224000000C0040000401400040014000440140F7
:102250000048014000180040001C004000200040E1
:1022600010B501F01F030121046A99408C430462F8
:10227000016A9A401143016210BD10B5846842EAB8
:10228000032224F47F440A432243826010BD826803
:1022900022F070020A4342F007018160704700009B
:1022A000F0B5026A22F001020262036A42688469A0
:1022B000124E24F073050C682C4323F002058B6842
:1022C0002B430D4DA84201D0B04205D123F00807A1
:1022D000CB683B4323F00403A84201D0B04205D1B0
:1022E0004D6922F4407215438A692A434260846131
:1022F000496841630362F0BD0000014000040140F1
:10230000F0B5026A22F010020262026A4368846930
:102310000D6824F4E64444EA05248D6822F0200286
:1023200042EA05120F4D104EA84201D0B04206D12C
:10233000CF6822F0800242EA071222F04002A8424F
:1023400001D0B04207D14D6923F4406343EA8503CD
:102350008D6943EA85034360846149688163026251
:10236000F0BD00000000014000040140F0B5026A29
:1023700022F480720262026A4368C46922F4007225
:1023800024F073050C68124E2C438D6842EA052236
:102390000E4DA84201D0B04206D1CF6822F40062AF
:1023A00042EA072222F48062A84201D0B04207D15B
:1023B0004D6923F4405343EA05138D6943EA05133D
:1023C0004360C4614968C1630262F0BD000001401E
:1023D0000004014030B5026A22F480520262046AAD
:1023E0004268C3690D6823F4E64343EA05238D6818
:1023F00024F4005444EA0534084DA84202D0084DA4
:10240000A84204D14D6922F4804242EA851242601A
:10241000C36149680164046230BD000000000140EE
:102420000004014010B5036A046A24F00104046248
:10243000846924F0F00444EA021423F00A020A43F7
:102440008461026210BD10B5036A23F010030362B9
:102450008369046A23F4704343EA023224F0A00340
:1024600043EA01118261016210BD10B5806B002149
:10247000C185C184FFF7D5FA10BD01680C3151E860
:10248000002F22F4907241E80023002BF5D101685F
:10249000143151E8002F22F0010241E80023002B03
:1024A000F5D1016B012909D101680C3151E8002FE8
:1024B00022F0100241E80023002BF5D1202180F802
:1024C0003E1000210163704708B590F83E102229A4
:1024D00001D0022008BD82684FF480539A4201D196
:1024E000016921B1816A9A421BD04AB10AE00268AF
:1024F000816A5268C2F308020A80816A891C08E076
:10250000026972B10268526802F07F020A70816A41
:10251000491C8162C18D491E0904090CC18503D083
:1025200019E002685268F1E70168CA6822F02002E7
:10253000CA600168CA6822F48072CA6001684A6988
:1025400022F001024A61202180F83E10016B01292E
:1025500003D0FFF75DFC002008BD00210163016886
:102560000C3151E8002F22F0100241E80023002B2B
:10257000F5D101680A68D20602D50A684968009157
:10258000818DFFF74DFAE6E770B5044600680169F2
:10259000E26821F44051114301612169A068E269B8
:1025A00008436169114308432168CA6849F20C6312
:1025B0009A430243CA6020684169A26921F44071CC
:1025C0001143416131492068884202D03049884234
:1025D00002D1FEF7C1FC01E0FEF7AEFCE269002388
:1025E000192164253226B2F5004F626828D0A0FB7D
:1025F0000101930F9200FDF737FE0146B0FBF5F0A5
:102600006FF01802504301EB800006EB0010B0FBA6
:10261000F5F000F0F002B1FBF5F002EB0012B1FBB7
:10262000F5F06FF01803584301EB800006EB001043
:10263000B0FBF5F000F00F0021681044886070BD19
:10264000A0FB010192185B41FDF70EFE0146B0FBB5
:10265000F5F00201B1FBF5F06FF01803584301EB00
:10266000800006EBC000B0FBF5F000F0F80002EBD4
:102670004002B1FBF5F0584301EB800006EBC000CF
:10268000B0FBF5F000F00700D6E7000000100140B5
:102690000014014081628285C285002101642222EA
:1026A00080F83E2080F83C100168CA6842F48072CD
:1026B000CA6001684A6942F001024A610068C16863
:1026C00041F02001C1600020704700000148FFF781
:1026D000A9B90000D00000200148FFF7A3B900000D
:1026E00014010020FEE70907090E002804DB00F1B1
:1026F000E02080F80014704700F00F0000F1E020A7
:1027000080F8141D70470000FEF7E2FAFFF7ECFCBA
:10271000FFF706FCFFF7C0FBFFF7E0FBFFF7A4FCA9
:10272000FFF7BEFCFFF732FC0748FEF7E1FE002191
:102730000548FFF70FF904210348FFF70BF9642060
:10274000FEF7AEF9FEE70000880000204FF0407071
:10275000E1EE100A704700000000000000000102D6
:10276000030406070809000000000102030400003A
:10277000902700080000002038000000C401000875
:10278000C827000838000020F8070000E001000812
:10279000000000000000A041000000000000000058
:1027A0000000000001000000100000000000000018
:1027B0000024F40000000000000000000000000001
:0827C000000000000000000011
:040000050800018965
:00000001FF
